{
  "contracts/DemoV2.sol": {
    "DemoV2": {
      "abi": [
        {
          "inputs": [],
          "name": "name",
          "outputs": [
            {
              "internalType": "string",
              "name": "",
              "type": "string"
            }
          ],
          "stateMutability": "view",
          "type": "function"
        },
        {
          "inputs": [
            {
              "internalType": "string",
              "name": "_name",
              "type": "string"
            }
          ],
          "name": "setName",
          "outputs": [],
          "stateMutability": "nonpayable",
          "type": "function"
        },
        {
          "inputs": [],
          "name": "version",
          "outputs": [
            {
              "internalType": "string",
              "name": "",
              "type": "string"
            }
          ],
          "stateMutability": "pure",
          "type": "function"
        }
      ],
      "evm": {
        "bytecode": {
          "linkReferences": {},
          "object": "6080604052348015600f57600080fd5b506106de8061001f6000396000f3fe608060405234801561001057600080fd5b50600436106100415760003560e01c806306fdde031461004657806354fd4d5014610064578063c47f002714610082575b600080fd5b61004e61009e565b60405161005b919061020c565b60405180910390f35b61006c61012c565b604051610079919061020c565b60405180910390f35b61009c60048036038101906100979190610377565b610169565b005b600080546100ab906103ef565b80601f01602080910402602001604051908101604052809291908181526020018280546100d7906103ef565b80156101245780601f106100f957610100808354040283529160200191610124565b820191906000526020600020905b81548152906001019060200180831161010757829003601f168201915b505050505081565b60606040518060400160405280600581526020017f322e302e30000000000000000000000000000000000000000000000000000000815250905090565b806000908161017891906105d6565b5050565b600081519050919050565b600082825260208201905092915050565b60005b838110156101b657808201518184015260208101905061019b565b60008484015250505050565b6000601f19601f8301169050919050565b60006101de8261017c565b6101e88185610187565b93506101f8818560208601610198565b610201816101c2565b840191505092915050565b6000602082019050818103600083015261022681846101d3565b905092915050565b6000604051905090565b600080fd5b600080fd5b600080fd5b600080fd5b7f4e487b7100000000000000000000000000000000000000000000000000000000600052604160045260246000fd5b610284826101c2565b810181811067ffffffffffffffff821117156102a3576102a261024c565b5b80604052505050565b60006102b661022e565b90506102c2828261027b565b919050565b600067ffffffffffffffff8211156102e2576102e161024c565b5b6102eb826101c2565b9050602081019050919050565b82818337600083830152505050565b600061031a610315846102c7565b6102ac565b90508281526020810184848401111561033657610335610247565b5b6103418482856102f8565b509392505050565b600082601f83011261035e5761035d610242565b5b813561036e848260208601610307565b91505092915050565b60006020828403121561038d5761038c610238565b5b600082013567ffffffffffffffff8111156103ab576103aa61023d565b5b6103b784828501610349565b91505092915050565b7f4e487b7100000000000000000000000000000000000000000000000000000000600052602260045260246000fd5b6000600282049050600182168061040757607f821691505b60208210810361041a576104196103c0565b5b50919050565b60008190508160005260206000209050919050565b60006020601f8301049050919050565b600082821b905092915050565b6000600883026104827fffffffffffffffffffffffffffffffffffffffffffffffffffffffffffffffff82610445565b61048c8683610445565b95508019841693508086168417925050509392505050565b6000819050919050565b6000819050919050565b60006104d36104ce6104c9846104a4565b6104ae565b6104a4565b9050919050565b6000819050919050565b6104ed836104b8565b6105016104f9826104da565b848454610452565b825550505050565b600090565b610516610509565b6105218184846104e4565b505050565b5b818110156105455761053a60008261050e565b600181019050610527565b5050565b601f82111561058a5761055b81610420565b61056484610435565b81016020851015610573578190505b61058761057f85610435565b830182610526565b50505b505050565b600082821c905092915050565b60006105ad6000198460080261058f565b1980831691505092915050565b60006105c6838361059c565b9150826002028217905092915050565b6105df8261017c565b67ffffffffffffffff8111156105f8576105f761024c565b5b61060282546103ef565b61060d828285610549565b600060209050601f831160018114610640576000841561062e578287015190505b61063885826105ba565b8655506106a0565b601f19841661064e86610420565b60005b8281101561067657848901518255600182019150602085019450602081019050610651565b86831015610693578489015161068f601f89168261059c565b8355505b6001600288020188555050505b50505050505056fea2646970667358221220968d5414634d1c8092f93bef4508e3641e2a4fa140a0374ce1edfef20bcec4a764736f6c634300081c0033",
          "opcodes": "PUSH1 0x80 PUSH1 0x40 MSTORE CALLVALUE DUP1 ISZERO PUSH1 0xF JUMPI PUSH1 0x0 DUP1 REVERT JUMPDEST POP PUSH2 0x6DE DUP1 PUSH2 0x1F PUSH1 0x0 CODECOPY PUSH1 0x0 RETURN INVALID PUSH1 0x80 PUSH1 0x40 MSTORE CALLVALUE DUP1 ISZERO PUSH2 0x10 JUMPI PUSH1 0x0 DUP1 REVERT JUMPDEST POP PUSH1 0x4 CALLDATASIZE LT PUSH2 0x41 JUMPI PUSH1 0x0 CALLDATALOAD PUSH1 0xE0 SHR DUP1 PUSH4 0x6FDDE03 EQ PUSH2 0x46 JUMPI DUP1 PUSH4 0x54FD4D50 EQ PUSH2 0x64 JUMPI DUP1 PUSH4 0xC47F0027 EQ PUSH2 0x82 JUMPI JUMPDEST PUSH1 0x0 DUP1 REVERT JUMPDEST PUSH2 0x4E PUSH2 0x9E JUMP JUMPDEST PUSH1 0x40 MLOAD PUSH2 0x5B SWAP2 SWAP1 PUSH2 0x20C JUMP JUMPDEST PUSH1 0x40 MLOAD DUP1 SWAP2 SUB SWAP1 RETURN JUMPDEST PUSH2 0x6C PUSH2 0x12C JUMP JUMPDEST PUSH1 0x40 MLOAD PUSH2 0x79 SWAP2 SWAP1 PUSH2 0x20C JUMP JUMPDEST PUSH1 0x40 MLOAD DUP1 SWAP2 SUB SWAP1 RETURN JUMPDEST PUSH2 0x9C PUSH1 0x4 DUP1 CALLDATASIZE SUB DUP2 ADD SWAP1 PUSH2 0x97 SWAP2 SWAP1 PUSH2 0x377 JUMP JUMPDEST PUSH2 0x169 JUMP JUMPDEST STOP JUMPDEST PUSH1 0x0 DUP1 SLOAD PUSH2 0xAB SWAP1 PUSH2 0x3EF JUMP JUMPDEST DUP1 PUSH1 0x1F ADD PUSH1 0x20 DUP1 SWAP2 DIV MUL PUSH1 0x20 ADD PUSH1 0x40 MLOAD SWAP1 DUP2 ADD PUSH1 0x40 MSTORE DUP1 SWAP3 SWAP2 SWAP1 DUP2 DUP2 MSTORE PUSH1 0x20 ADD DUP3 DUP1 SLOAD PUSH2 0xD7 SWAP1 PUSH2 0x3EF JUMP JUMPDEST DUP1 ISZERO PUSH2 0x124 JUMPI DUP1 PUSH1 0x1F LT PUSH2 0xF9 JUMPI PUSH2 0x100 DUP1 DUP4 SLOAD DIV MUL DUP4 MSTORE SWAP2 PUSH1 0x20 ADD SWAP2 PUSH2 0x124 JUMP JUMPDEST DUP3 ADD SWAP2 SWAP1 PUSH1 0x0 MSTORE PUSH1 0x20 PUSH1 0x0 KECCAK256 SWAP1 JUMPDEST DUP2 SLOAD DUP2 MSTORE SWAP1 PUSH1 0x1 ADD SWAP1 PUSH1 0x20 ADD DUP1 DUP4 GT PUSH2 0x107 JUMPI DUP3 SWAP1 SUB PUSH1 0x1F AND DUP3 ADD SWAP2 JUMPDEST POP POP POP POP POP DUP2 JUMP JUMPDEST PUSH1 0x60 PUSH1 0x40 MLOAD DUP1 PUSH1 0x40 ADD PUSH1 0x40 MSTORE DUP1 PUSH1 0x5 DUP2 MSTORE PUSH1 0x20 ADD PUSH32 0x322E302E30000000000000000000000000000000000000000000000000000000 DUP2 MSTORE POP SWAP1 POP SWAP1 JUMP JUMPDEST DUP1 PUSH1 0x0 SWAP1 DUP2 PUSH2 0x178 SWAP2 SWAP1 PUSH2 0x5D6 JUMP JUMPDEST POP POP JUMP JUMPDEST PUSH1 0x0 DUP2 MLOAD SWAP1 POP SWAP2 SWAP1 POP JUMP JUMPDEST PUSH1 0x0 DUP3 DUP3 MSTORE PUSH1 0x20 DUP3 ADD SWAP1 POP SWAP3 SWAP2 POP POP JUMP JUMPDEST PUSH1 0x0 JUMPDEST DUP4 DUP2 LT ISZERO PUSH2 0x1B6 JUMPI DUP1 DUP3 ADD MLOAD DUP2 DUP5 ADD MSTORE PUSH1 0x20 DUP2 ADD SWAP1 POP PUSH2 0x19B JUMP JUMPDEST PUSH1 0x0 DUP5 DUP5 ADD MSTORE POP POP POP POP JUMP JUMPDEST PUSH1 0x0 PUSH1 0x1F NOT PUSH1 0x1F DUP4 ADD AND SWAP1 POP SWAP2 SWAP1 POP JUMP JUMPDEST PUSH1 0x0 PUSH2 0x1DE DUP3 PUSH2 0x17C JUMP JUMPDEST PUSH2 0x1E8 DUP2 DUP6 PUSH2 0x187 JUMP JUMPDEST SWAP4 POP PUSH2 0x1F8 DUP2 DUP6 PUSH1 0x20 DUP7 ADD PUSH2 0x198 JUMP JUMPDEST PUSH2 0x201 DUP2 PUSH2 0x1C2 JUMP JUMPDEST DUP5 ADD SWAP2 POP POP SWAP3 SWAP2 POP POP JUMP JUMPDEST PUSH1 0x0 PUSH1 0x20 DUP3 ADD SWAP1 POP DUP2 DUP2 SUB PUSH1 0x0 DUP4 ADD MSTORE PUSH2 0x226 DUP2 DUP5 PUSH2 0x1D3 JUMP JUMPDEST SWAP1 POP SWAP3 SWAP2 POP POP JUMP JUMPDEST PUSH1 0x0 PUSH1 0x40 MLOAD SWAP1 POP SWAP1 JUMP JUMPDEST PUSH1 0x0 DUP1 REVERT JUMPDEST PUSH1 0x0 DUP1 REVERT JUMPDEST PUSH1 0x0 DUP1 REVERT JUMPDEST PUSH1 0x0 DUP1 REVERT JUMPDEST PUSH32 0x4E487B7100000000000000000000000000000000000000000000000000000000 PUSH1 0x0 MSTORE PUSH1 0x41 PUSH1 0x4 MSTORE PUSH1 0x24 PUSH1 0x0 REVERT JUMPDEST PUSH2 0x284 DUP3 PUSH2 0x1C2 JUMP JUMPDEST DUP2 ADD DUP2 DUP2 LT PUSH8 0xFFFFFFFFFFFFFFFF DUP3 GT OR ISZERO PUSH2 0x2A3 JUMPI PUSH2 0x2A2 PUSH2 0x24C JUMP JUMPDEST JUMPDEST DUP1 PUSH1 0x40 MSTORE POP POP POP JUMP JUMPDEST PUSH1 0x0 PUSH2 0x2B6 PUSH2 0x22E JUMP JUMPDEST SWAP1 POP PUSH2 0x2C2 DUP3 DUP3 PUSH2 0x27B JUMP JUMPDEST SWAP2 SWAP1 POP JUMP JUMPDEST PUSH1 0x0 PUSH8 0xFFFFFFFFFFFFFFFF DUP3 GT ISZERO PUSH2 0x2E2 JUMPI PUSH2 0x2E1 PUSH2 0x24C JUMP JUMPDEST JUMPDEST PUSH2 0x2EB DUP3 PUSH2 0x1C2 JUMP JUMPDEST SWAP1 POP PUSH1 0x20 DUP2 ADD SWAP1 POP SWAP2 SWAP1 POP JUMP JUMPDEST DUP3 DUP2 DUP4 CALLDATACOPY PUSH1 0x0 DUP4 DUP4 ADD MSTORE POP POP POP JUMP JUMPDEST PUSH1 0x0 PUSH2 0x31A PUSH2 0x315 DUP5 PUSH2 0x2C7 JUMP JUMPDEST PUSH2 0x2AC JUMP JUMPDEST SWAP1 POP DUP3 DUP2 MSTORE PUSH1 0x20 DUP2 ADD DUP5 DUP5 DUP5 ADD GT ISZERO PUSH2 0x336 JUMPI PUSH2 0x335 PUSH2 0x247 JUMP JUMPDEST JUMPDEST PUSH2 0x341 DUP5 DUP3 DUP6 PUSH2 0x2F8 JUMP JUMPDEST POP SWAP4 SWAP3 POP POP POP JUMP JUMPDEST PUSH1 0x0 DUP3 PUSH1 0x1F DUP4 ADD SLT PUSH2 0x35E JUMPI PUSH2 0x35D PUSH2 0x242 JUMP JUMPDEST JUMPDEST DUP2 CALLDATALOAD PUSH2 0x36E DUP5 DUP3 PUSH1 0x20 DUP7 ADD PUSH2 0x307 JUMP JUMPDEST SWAP2 POP POP SWAP3 SWAP2 POP POP JUMP JUMPDEST PUSH1 0x0 PUSH1 0x20 DUP3 DUP5 SUB SLT ISZERO PUSH2 0x38D JUMPI PUSH2 0x38C PUSH2 0x238 JUMP JUMPDEST JUMPDEST PUSH1 0x0 DUP3 ADD CALLDATALOAD PUSH8 0xFFFFFFFFFFFFFFFF DUP2 GT ISZERO PUSH2 0x3AB JUMPI PUSH2 0x3AA PUSH2 0x23D JUMP JUMPDEST JUMPDEST PUSH2 0x3B7 DUP5 DUP3 DUP6 ADD PUSH2 0x349 JUMP JUMPDEST SWAP2 POP POP SWAP3 SWAP2 POP POP JUMP JUMPDEST PUSH32 0x4E487B7100000000000000000000000000000000000000000000000000000000 PUSH1 0x0 MSTORE PUSH1 0x22 PUSH1 0x4 MSTORE PUSH1 0x24 PUSH1 0x0 REVERT JUMPDEST PUSH1 0x0 PUSH1 0x2 DUP3 DIV SWAP1 POP PUSH1 0x1 DUP3 AND DUP1 PUSH2 0x407 JUMPI PUSH1 0x7F DUP3 AND SWAP2 POP JUMPDEST PUSH1 0x20 DUP3 LT DUP2 SUB PUSH2 0x41A JUMPI PUSH2 0x419 PUSH2 0x3C0 JUMP JUMPDEST JUMPDEST POP SWAP2 SWAP1 POP JUMP JUMPDEST PUSH1 0x0 DUP2 SWAP1 POP DUP2 PUSH1 0x0 MSTORE PUSH1 0x20 PUSH1 0x0 KECCAK256 SWAP1 POP SWAP2 SWAP1 POP JUMP JUMPDEST PUSH1 0x0 PUSH1 0x20 PUSH1 0x1F DUP4 ADD DIV SWAP1 POP SWAP2 SWAP1 POP JUMP JUMPDEST PUSH1 0x0 DUP3 DUP3 SHL SWAP1 POP SWAP3 SWAP2 POP POP JUMP JUMPDEST PUSH1 0x0 PUSH1 0x8 DUP4 MUL PUSH2 0x482 PUSH32 0xFFFFFFFFFFFFFFFFFFFFFFFFFFFFFFFFFFFFFFFFFFFFFFFFFFFFFFFFFFFFFFFF DUP3 PUSH2 0x445 JUMP JUMPDEST PUSH2 0x48C DUP7 DUP4 PUSH2 0x445 JUMP JUMPDEST SWAP6 POP DUP1 NOT DUP5 AND SWAP4 POP DUP1 DUP7 AND DUP5 OR SWAP3 POP POP POP SWAP4 SWAP3 POP POP POP JUMP JUMPDEST PUSH1 0x0 DUP2 SWAP1 POP SWAP2 SWAP1 POP JUMP JUMPDEST PUSH1 0x0 DUP2 SWAP1 POP SWAP2 SWAP1 POP JUMP JUMPDEST PUSH1 0x0 PUSH2 0x4D3 PUSH2 0x4CE PUSH2 0x4C9 DUP5 PUSH2 0x4A4 JUMP JUMPDEST PUSH2 0x4AE JUMP JUMPDEST PUSH2 0x4A4 JUMP JUMPDEST SWAP1 POP SWAP2 SWAP1 POP JUMP JUMPDEST PUSH1 0x0 DUP2 SWAP1 POP SWAP2 SWAP1 POP JUMP JUMPDEST PUSH2 0x4ED DUP4 PUSH2 0x4B8 JUMP JUMPDEST PUSH2 0x501 PUSH2 0x4F9 DUP3 PUSH2 0x4DA JUMP JUMPDEST DUP5 DUP5 SLOAD PUSH2 0x452 JUMP JUMPDEST DUP3 SSTORE POP POP POP POP JUMP JUMPDEST PUSH1 0x0 SWAP1 JUMP JUMPDEST PUSH2 0x516 PUSH2 0x509 JUMP JUMPDEST PUSH2 0x521 DUP2 DUP5 DUP5 PUSH2 0x4E4 JUMP JUMPDEST POP POP POP JUMP JUMPDEST JUMPDEST DUP2 DUP2 LT ISZERO PUSH2 0x545 JUMPI PUSH2 0x53A PUSH1 0x0 DUP3 PUSH2 0x50E JUMP JUMPDEST PUSH1 0x1 DUP2 ADD SWAP1 POP PUSH2 0x527 JUMP JUMPDEST POP POP JUMP JUMPDEST PUSH1 0x1F DUP3 GT ISZERO PUSH2 0x58A JUMPI PUSH2 0x55B DUP2 PUSH2 0x420 JUMP JUMPDEST PUSH2 0x564 DUP5 PUSH2 0x435 JUMP JUMPDEST DUP2 ADD PUSH1 0x20 DUP6 LT ISZERO PUSH2 0x573 JUMPI DUP2 SWAP1 POP JUMPDEST PUSH2 0x587 PUSH2 0x57F DUP6 PUSH2 0x435 JUMP JUMPDEST DUP4 ADD DUP3 PUSH2 0x526 JUMP JUMPDEST POP POP JUMPDEST POP POP POP JUMP JUMPDEST PUSH1 0x0 DUP3 DUP3 SHR SWAP1 POP SWAP3 SWAP2 POP POP JUMP JUMPDEST PUSH1 0x0 PUSH2 0x5AD PUSH1 0x0 NOT DUP5 PUSH1 0x8 MUL PUSH2 0x58F JUMP JUMPDEST NOT DUP1 DUP4 AND SWAP2 POP POP SWAP3 SWAP2 POP POP JUMP JUMPDEST PUSH1 0x0 PUSH2 0x5C6 DUP4 DUP4 PUSH2 0x59C JUMP JUMPDEST SWAP2 POP DUP3 PUSH1 0x2 MUL DUP3 OR SWAP1 POP SWAP3 SWAP2 POP POP JUMP JUMPDEST PUSH2 0x5DF DUP3 PUSH2 0x17C JUMP JUMPDEST PUSH8 0xFFFFFFFFFFFFFFFF DUP2 GT ISZERO PUSH2 0x5F8 JUMPI PUSH2 0x5F7 PUSH2 0x24C JUMP JUMPDEST JUMPDEST PUSH2 0x602 DUP3 SLOAD PUSH2 0x3EF JUMP JUMPDEST PUSH2 0x60D DUP3 DUP3 DUP6 PUSH2 0x549 JUMP JUMPDEST PUSH1 0x0 PUSH1 0x20 SWAP1 POP PUSH1 0x1F DUP4 GT PUSH1 0x1 DUP2 EQ PUSH2 0x640 JUMPI PUSH1 0x0 DUP5 ISZERO PUSH2 0x62E JUMPI DUP3 DUP8 ADD MLOAD SWAP1 POP JUMPDEST PUSH2 0x638 DUP6 DUP3 PUSH2 0x5BA JUMP JUMPDEST DUP7 SSTORE POP PUSH2 0x6A0 JUMP JUMPDEST PUSH1 0x1F NOT DUP5 AND PUSH2 0x64E DUP7 PUSH2 0x420 JUMP JUMPDEST PUSH1 0x0 JUMPDEST DUP3 DUP2 LT ISZERO PUSH2 0x676 JUMPI DUP5 DUP10 ADD MLOAD DUP3 SSTORE PUSH1 0x1 DUP3 ADD SWAP2 POP PUSH1 0x20 DUP6 ADD SWAP5 POP PUSH1 0x20 DUP2 ADD SWAP1 POP PUSH2 0x651 JUMP JUMPDEST DUP7 DUP4 LT ISZERO PUSH2 0x693 JUMPI DUP5 DUP10 ADD MLOAD PUSH2 0x68F PUSH1 0x1F DUP10 AND DUP3 PUSH2 0x59C JUMP JUMPDEST DUP4 SSTORE POP JUMPDEST PUSH1 0x1 PUSH1 0x2 DUP9 MUL ADD DUP9 SSTORE POP POP POP JUMPDEST POP POP POP POP POP POP JUMP INVALID LOG2 PUSH5 0x6970667358 0x22 SLT KECCAK256 SWAP7 DUP14 SLOAD EQ PUSH4 0x4D1C8092 0xF9 EXTCODESIZE 0xEF GASLIMIT ADDMOD 0xE3 PUSH5 0x1E2A4FA140 LOG0 CALLDATACOPY 0x4C 0xE1 0xED INVALID CALLCODE SIGNEXTEND 0xCE 0xC4 0xA7 PUSH5 0x736F6C6343 STOP ADDMOD SHR STOP CALLER "
        },
        "methodIdentifiers": {
          "name()": "06fdde03",
          "setName(string)": "c47f0027",
          "version()": "54fd4d50"
        }
      },
      "storageLayout": {
        "storage": [
          {
            "astId": 1181,
            "contract": "contracts/DemoV2.sol:DemoV2",
            "label": "name",
            "offset": 0,
            "slot": "0",
            "type": "t_string_storage"
          }
        ],
        "types": {
          "t_string_storage": {
            "encoding": "bytes",
            "label": "string",
            "numberOfBytes": "32"
          }
        }
      }
    }
  }
}